{
  "_format": "hh-sol-artifact-1",
  "contractName": "BscBridge",
  "sourceName": "contracts/BscBridge.sol",
  "abi": [
    {
      "inputs": [
        {
          "internalType": "address",
          "name": "token",
          "type": "address"
        }
      ],
      "stateMutability": "nonpayable",
      "type": "constructor"
    },
    {
      "anonymous": false,
      "inputs": [
        {
          "indexed": true,
          "internalType": "address",
          "name": "previousOwner",
          "type": "address"
        },
        {
          "indexed": true,
          "internalType": "address",
          "name": "newOwner",
          "type": "address"
        }
      ],
      "name": "OwnershipTransferred",
      "type": "event"
    },
    {
      "anonymous": false,
      "inputs": [
        {
          "indexed": false,
          "internalType": "address",
          "name": "from",
          "type": "address"
        },
        {
          "indexed": false,
          "internalType": "address",
          "name": "to",
          "type": "address"
        },
        {
          "indexed": false,
          "internalType": "uint256",
          "name": "amount",
          "type": "uint256"
        },
        {
          "indexed": false,
          "internalType": "uint256",
          "name": "date",
          "type": "uint256"
        },
        {
          "indexed": false,
          "internalType": "uint256",
          "name": "nonce",
          "type": "uint256"
        },
        {
          "indexed": true,
          "internalType": "enum Bridge.Step",
          "name": "step",
          "type": "uint8"
        }
      ],
      "name": "Transfer",
      "type": "event"
    },
    {
      "inputs": [
        {
          "internalType": "address",
          "name": "to",
          "type": "address"
        },
        {
          "internalType": "uint256",
          "name": "amount",
          "type": "uint256"
        }
      ],
      "name": "burn",
      "outputs": [],
      "stateMutability": "nonpayable",
      "type": "function"
    },
    {
      "inputs": [
        {
          "internalType": "address",
          "name": "to",
          "type": "address"
        },
        {
          "internalType": "uint256",
          "name": "amount",
          "type": "uint256"
        },
        {
          "internalType": "uint256",
          "name": "otherChainNonce",
          "type": "uint256"
        }
      ],
      "name": "mint",
      "outputs": [],
      "stateMutability": "nonpayable",
      "type": "function"
    },
    {
      "inputs": [],
      "name": "nonce",
      "outputs": [
        {
          "internalType": "uint256",
          "name": "",
          "type": "uint256"
        }
      ],
      "stateMutability": "view",
      "type": "function"
    },
    {
      "inputs": [],
      "name": "owner",
      "outputs": [
        {
          "internalType": "address",
          "name": "",
          "type": "address"
        }
      ],
      "stateMutability": "view",
      "type": "function"
    },
    {
      "inputs": [
        {
          "internalType": "uint256",
          "name": "",
          "type": "uint256"
        }
      ],
      "name": "processedNonces",
      "outputs": [
        {
          "internalType": "bool",
          "name": "",
          "type": "bool"
        }
      ],
      "stateMutability": "view",
      "type": "function"
    },
    {
      "inputs": [],
      "name": "renounceOwnership",
      "outputs": [],
      "stateMutability": "nonpayable",
      "type": "function"
    },
    {
      "inputs": [],
      "name": "token",
      "outputs": [
        {
          "internalType": "contract IToken",
          "name": "",
          "type": "address"
        }
      ],
      "stateMutability": "view",
      "type": "function"
    },
    {
      "inputs": [
        {
          "internalType": "address",
          "name": "newOwner",
          "type": "address"
        }
      ],
      "name": "transferOwnership",
      "outputs": [],
      "stateMutability": "nonpayable",
      "type": "function"
    }
  ],
  "bytecode": "0x608060405234801561001057600080fd5b50604051610d24380380610d24833981810160405281019061003291906101c6565b8061004f61004461009760201b60201c565b61009f60201b60201c565b80600160006101000a81548173ffffffffffffffffffffffffffffffffffffffff021916908373ffffffffffffffffffffffffffffffffffffffff16021790555050506101f3565b600033905090565b60008060009054906101000a900473ffffffffffffffffffffffffffffffffffffffff169050816000806101000a81548173ffffffffffffffffffffffffffffffffffffffff021916908373ffffffffffffffffffffffffffffffffffffffff1602179055508173ffffffffffffffffffffffffffffffffffffffff168173ffffffffffffffffffffffffffffffffffffffff167f8be0079c531659141344cd1fd0a4f28419497f9722a3daafe3b4186f6b6457e060405160405180910390a35050565b600080fd5b600073ffffffffffffffffffffffffffffffffffffffff82169050919050565b600061019382610168565b9050919050565b6101a381610188565b81146101ae57600080fd5b50565b6000815190506101c08161019a565b92915050565b6000602082840312156101dc576101db610163565b5b60006101ea848285016101b1565b91505092915050565b610b22806102026000396000f3fe608060405234801561001057600080fd5b50600436106100885760003560e01c80639dc29fac1161005b5780639dc29fac14610101578063affed0e01461011d578063f2fde38b1461013b578063fc0c546a1461015757610088565b8063156e29f61461008d578063715018a6146100a95780638da5cb5b146100b357806391dae519146100d1575b600080fd5b6100a760048036038101906100a2919061065e565b610175565b005b6100b16102f6565b005b6100bb61030a565b6040516100c891906106c0565b60405180910390f35b6100eb60048036038101906100e691906106db565b610333565b6040516100f89190610723565b60405180910390f35b61011b6004803603810190610116919061073e565b610353565b005b6101256103cc565b604051610132919061078d565b60405180910390f35b610155600480360381019061015091906107a8565b6103d2565b005b61015f610455565b60405161016c9190610834565b60405180910390f35b61017d61047b565b600015156003600083815260200190815260200160002060009054906101000a900460ff161515146101e4576040517f08c379a00000000000000000000000000000000000000000000000000000000081526004016101db906108ac565b60405180910390fd5b60016003600083815260200190815260200160002060006101000a81548160ff021916908315150217905550600160009054906101000a900473ffffffffffffffffffffffffffffffffffffffff1673ffffffffffffffffffffffffffffffffffffffff166340c10f1984846040518363ffffffff1660e01b815260040161026d9291906108cc565b600060405180830381600087803b15801561028757600080fd5b505af115801561029b573d6000803e3d6000fd5b505050506001808111156102b2576102b16108f5565b5b7f27757542a5e1b9e8cef80f584e094d4eb63b9802f355c61b3640b71b618d5c8e33858542866040516102e9959493929190610924565b60405180910390a2505050565b6102fe61047b565b61030860006104f9565b565b60008060009054906101000a900473ffffffffffffffffffffffffffffffffffffffff16905090565b60036020528060005260406000206000915054906101000a900460ff1681565b61035b61047b565b6000600181111561036f5761036e6108f5565b5b7f27757542a5e1b9e8cef80f584e094d4eb63b9802f355c61b3640b71b618d5c8e338484426002546040516103a8959493929190610924565b60405180910390a2600260008154809291906103c3906109a6565b91905055505050565b60025481565b6103da61047b565b600073ffffffffffffffffffffffffffffffffffffffff168173ffffffffffffffffffffffffffffffffffffffff1603610449576040517f08c379a000000000000000000000000000000000000000000000000000000000815260040161044090610a60565b60405180910390fd5b610452816104f9565b50565b600160009054906101000a900473ffffffffffffffffffffffffffffffffffffffff1681565b6104836105bd565b73ffffffffffffffffffffffffffffffffffffffff166104a161030a565b73ffffffffffffffffffffffffffffffffffffffff16146104f7576040517f08c379a00000000000000000000000000000000000000000000000000000000081526004016104ee90610acc565b60405180910390fd5b565b60008060009054906101000a900473ffffffffffffffffffffffffffffffffffffffff169050816000806101000a81548173ffffffffffffffffffffffffffffffffffffffff021916908373ffffffffffffffffffffffffffffffffffffffff1602179055508173ffffffffffffffffffffffffffffffffffffffff168173ffffffffffffffffffffffffffffffffffffffff167f8be0079c531659141344cd1fd0a4f28419497f9722a3daafe3b4186f6b6457e060405160405180910390a35050565b600033905090565b600080fd5b600073ffffffffffffffffffffffffffffffffffffffff82169050919050565b60006105f5826105ca565b9050919050565b610605816105ea565b811461061057600080fd5b50565b600081359050610622816105fc565b92915050565b6000819050919050565b61063b81610628565b811461064657600080fd5b50565b60008135905061065881610632565b92915050565b600080600060608486031215610677576106766105c5565b5b600061068586828701610613565b935050602061069686828701610649565b92505060406106a786828701610649565b9150509250925092565b6106ba816105ea565b82525050565b60006020820190506106d560008301846106b1565b92915050565b6000602082840312156106f1576106f06105c5565b5b60006106ff84828501610649565b91505092915050565b60008115159050919050565b61071d81610708565b82525050565b60006020820190506107386000830184610714565b92915050565b60008060408385031215610755576107546105c5565b5b600061076385828601610613565b925050602061077485828601610649565b9150509250929050565b61078781610628565b82525050565b60006020820190506107a2600083018461077e565b92915050565b6000602082840312156107be576107bd6105c5565b5b60006107cc84828501610613565b91505092915050565b6000819050919050565b60006107fa6107f56107f0846105ca565b6107d5565b6105ca565b9050919050565b600061080c826107df565b9050919050565b600061081e82610801565b9050919050565b61082e81610813565b82525050565b60006020820190506108496000830184610825565b92915050565b600082825260208201905092915050565b7f7472616e7366657220616c72656164792070726f636573736564000000000000600082015250565b6000610896601a8361084f565b91506108a182610860565b602082019050919050565b600060208201905081810360008301526108c581610889565b9050919050565b60006040820190506108e160008301856106b1565b6108ee602083018461077e565b9392505050565b7f4e487b7100000000000000000000000000000000000000000000000000000000600052602160045260246000fd5b600060a08201905061093960008301886106b1565b61094660208301876106b1565b610953604083018661077e565b610960606083018561077e565b61096d608083018461077e565b9695505050505050565b7f4e487b7100000000000000000000000000000000000000000000000000000000600052601160045260246000fd5b60006109b182610628565b91507fffffffffffffffffffffffffffffffffffffffffffffffffffffffffffffffff82036109e3576109e2610977565b5b600182019050919050565b7f4f776e61626c653a206e6577206f776e657220697320746865207a65726f206160008201527f6464726573730000000000000000000000000000000000000000000000000000602082015250565b6000610a4a60268361084f565b9150610a55826109ee565b604082019050919050565b60006020820190508181036000830152610a7981610a3d565b9050919050565b7f4f776e61626c653a2063616c6c6572206973206e6f7420746865206f776e6572600082015250565b6000610ab660208361084f565b9150610ac182610a80565b602082019050919050565b60006020820190508181036000830152610ae581610aa9565b905091905056fea2646970667358221220802393db698bed8c29c6d4a945d09d4271087294be9e1ed29038046f971428a864736f6c63430008110033",
  "linkReferences": {},
  "deployedLinkReferences": {}
}